{
  "contractName": "Voting2",
  "abi": [
    {
      "anonymous": false,
      "inputs": [
        {
          "indexed": true,
          "internalType": "address",
          "name": "previousOwner",
          "type": "address"
        },
        {
          "indexed": true,
          "internalType": "address",
          "name": "newOwner",
          "type": "address"
        }
      ],
      "name": "OwnershipTransferred",
      "type": "event"
    },
    {
      "anonymous": false,
      "inputs": [
        {
          "indexed": false,
          "internalType": "uint256",
          "name": "proposalId",
          "type": "uint256"
        }
      ],
      "name": "ProposalRegistered",
      "type": "event"
    },
    {
      "anonymous": false,
      "inputs": [],
      "name": "ProposalsRegistrationEnded",
      "type": "event"
    },
    {
      "anonymous": false,
      "inputs": [],
      "name": "ProposalsRegistrationStarted",
      "type": "event"
    },
    {
      "anonymous": false,
      "inputs": [],
      "name": "SystemReset",
      "type": "event"
    },
    {
      "anonymous": false,
      "inputs": [
        {
          "indexed": false,
          "internalType": "address",
          "name": "voter",
          "type": "address"
        },
        {
          "indexed": false,
          "internalType": "uint256",
          "name": "proposalId",
          "type": "uint256"
        }
      ],
      "name": "Voted",
      "type": "event"
    },
    {
      "anonymous": false,
      "inputs": [
        {
          "indexed": false,
          "internalType": "address",
          "name": "voterAddress",
          "type": "address"
        }
      ],
      "name": "VoterRegistered",
      "type": "event"
    },
    {
      "anonymous": false,
      "inputs": [],
      "name": "VotesReset",
      "type": "event"
    },
    {
      "anonymous": false,
      "inputs": [],
      "name": "VotesTallied",
      "type": "event"
    },
    {
      "anonymous": false,
      "inputs": [],
      "name": "VotingSessionEnded",
      "type": "event"
    },
    {
      "anonymous": false,
      "inputs": [],
      "name": "VotingSessionStarted",
      "type": "event"
    },
    {
      "anonymous": false,
      "inputs": [
        {
          "indexed": false,
          "internalType": "enum Voting2.WorkflowStatus",
          "name": "previousStatus",
          "type": "uint8"
        },
        {
          "indexed": false,
          "internalType": "enum Voting2.WorkflowStatus",
          "name": "newStatus",
          "type": "uint8"
        }
      ],
      "name": "WorkflowStatusChange",
      "type": "event"
    },
    {
      "inputs": [],
      "name": "owner",
      "outputs": [
        {
          "internalType": "address",
          "name": "",
          "type": "address"
        }
      ],
      "stateMutability": "view",
      "type": "function",
      "constant": true
    },
    {
      "inputs": [],
      "name": "renounceOwnership",
      "outputs": [],
      "stateMutability": "nonpayable",
      "type": "function"
    },
    {
      "inputs": [
        {
          "internalType": "address",
          "name": "newOwner",
          "type": "address"
        }
      ],
      "name": "transferOwnership",
      "outputs": [],
      "stateMutability": "nonpayable",
      "type": "function"
    },
    {
      "inputs": [],
      "name": "getWorkflowStatus",
      "outputs": [
        {
          "internalType": "enum Voting2.WorkflowStatus",
          "name": "",
          "type": "uint8"
        }
      ],
      "stateMutability": "view",
      "type": "function",
      "constant": true
    },
    {
      "inputs": [],
      "name": "getWorkflowStatusString",
      "outputs": [
        {
          "internalType": "string",
          "name": "",
          "type": "string"
        }
      ],
      "stateMutability": "view",
      "type": "function",
      "constant": true
    },
    {
      "inputs": [],
      "name": "getAddresses",
      "outputs": [
        {
          "internalType": "address[]",
          "name": "",
          "type": "address[]"
        }
      ],
      "stateMutability": "view",
      "type": "function",
      "constant": true
    },
    {
      "inputs": [
        {
          "internalType": "address",
          "name": "addr",
          "type": "address"
        }
      ],
      "name": "getVoter",
      "outputs": [
        {
          "internalType": "bool",
          "name": "",
          "type": "bool"
        },
        {
          "internalType": "bool",
          "name": "",
          "type": "bool"
        },
        {
          "internalType": "uint256",
          "name": "",
          "type": "uint256"
        }
      ],
      "stateMutability": "view",
      "type": "function",
      "constant": true
    },
    {
      "inputs": [],
      "name": "getProposalCount",
      "outputs": [
        {
          "internalType": "uint256",
          "name": "",
          "type": "uint256"
        }
      ],
      "stateMutability": "view",
      "type": "function",
      "constant": true
    },
    {
      "inputs": [
        {
          "internalType": "uint256",
          "name": "id",
          "type": "uint256"
        }
      ],
      "name": "getProposal",
      "outputs": [
        {
          "internalType": "string",
          "name": "",
          "type": "string"
        },
        {
          "internalType": "uint256",
          "name": "",
          "type": "uint256"
        }
      ],
      "stateMutability": "view",
      "type": "function",
      "constant": true
    },
    {
      "inputs": [
        {
          "internalType": "address",
          "name": "addr",
          "type": "address"
        }
      ],
      "name": "isAdmin",
      "outputs": [
        {
          "internalType": "bool",
          "name": "",
          "type": "bool"
        }
      ],
      "stateMutability": "view",
      "type": "function",
      "constant": true
    },
    {
      "inputs": [
        {
          "internalType": "address",
          "name": "addr",
          "type": "address"
        }
      ],
      "name": "isVoter",
      "outputs": [
        {
          "internalType": "bool",
          "name": "",
          "type": "bool"
        }
      ],
      "stateMutability": "view",
      "type": "function",
      "constant": true
    },
    {
      "inputs": [],
      "name": "resetSystem",
      "outputs": [],
      "stateMutability": "nonpayable",
      "type": "function"
    },
    {
      "inputs": [],
      "name": "startRegisteringVoters",
      "outputs": [],
      "stateMutability": "nonpayable",
      "type": "function"
    },
    {
      "inputs": [
        {
          "internalType": "address",
          "name": "addr",
          "type": "address"
        }
      ],
      "name": "registerVoter",
      "outputs": [],
      "stateMutability": "nonpayable",
      "type": "function"
    },
    {
      "inputs": [],
      "name": "startProposalsRegistration",
      "outputs": [],
      "stateMutability": "nonpayable",
      "type": "function"
    },
    {
      "inputs": [
        {
          "internalType": "string",
          "name": "description",
          "type": "string"
        }
      ],
      "name": "registerProposal",
      "outputs": [],
      "stateMutability": "nonpayable",
      "type": "function"
    },
    {
      "inputs": [],
      "name": "endProposalsRegistration",
      "outputs": [],
      "stateMutability": "nonpayable",
      "type": "function"
    },
    {
      "inputs": [],
      "name": "startVotingSession",
      "outputs": [],
      "stateMutability": "nonpayable",
      "type": "function"
    },
    {
      "inputs": [
        {
          "internalType": "uint256",
          "name": "proposalId",
          "type": "uint256"
        }
      ],
      "name": "vote",
      "outputs": [],
      "stateMutability": "nonpayable",
      "type": "function"
    },
    {
      "inputs": [],
      "name": "endVotingSession",
      "outputs": [],
      "stateMutability": "nonpayable",
      "type": "function"
    },
    {
      "inputs": [],
      "name": "tallyVotes",
      "outputs": [],
      "stateMutability": "nonpayable",
      "type": "function"
    },
    {
      "inputs": [
        {
          "internalType": "address",
          "name": "addr",
          "type": "address"
        }
      ],
      "name": "getChosenProposalId",
      "outputs": [
        {
          "internalType": "uint256",
          "name": "",
          "type": "uint256"
        }
      ],
      "stateMutability": "view",
      "type": "function",
      "constant": true
    },
    {
      "inputs": [],
      "name": "getWinningProposalId",
      "outputs": [
        {
          "internalType": "uint256",
          "name": "",
          "type": "uint256"
        }
      ],
      "stateMutability": "view",
      "type": "function",
      "constant": true
    },
    {
      "inputs": [],
      "name": "resetVotes",
      "outputs": [],
      "stateMutability": "nonpayable",
      "type": "function"
    }
  ],
  "bytecode": "0x608060405260008060146101000a81548160ff021916908360078111156200002c576200002b620000fd565b5b02179055503480156200003e57600080fd5b50600062000051620000f560201b60201c565b9050806000806101000a81548173ffffffffffffffffffffffffffffffffffffffff021916908373ffffffffffffffffffffffffffffffffffffffff1602179055508073ffffffffffffffffffffffffffffffffffffffff16600073ffffffffffffffffffffffffffffffffffffffff167f8be0079c531659141344cd1fd0a4f28419497f9722a3daafe3b4186f6b6457e060405160405180910390a3506200012c565b600033905090565b7f4e487b7100000000000000000000000000000000000000000000000000000000600052602160045260246000fd5b613b7a806200013c6000396000f3fe608060405234801561001057600080fd5b50600436106101585760003560e01c8063a7771ee3116100c3578063d4f50f981161007c578063d4f50f9814610330578063e09b8c7914610362578063e81e977b1461036c578063ee74c6781461038a578063f2fde38b14610394578063f75d64a6146103b057610158565b8063a7771ee314610293578063a7bfab16146102c3578063b9830ff1146102cd578063c08cc02d146102d7578063c7f758a8146102f5578063c8e999b81461032657610158565b80636c297445116101155780636c29744514610209578063715018a61461021357806382a85fe41461021d5780638827636c146102275780638da5cb5b14610257578063a39fac121461027557610158565b80630121b93f1461015d57806324d7806c146101795780632f95355b146101a9578063378a2178146101c557806338db6dd3146101cf578063600c3365146101eb575b600080fd5b6101776004803603810190610172919061297a565b6103ce565b005b610193600480360381019061018e9190612904565b61068d565b6040516101a09190612de6565b60405180910390f35b6101c360048036038101906101be9190612931565b6106cc565b005b6101cd61087a565b005b6101e960048036038101906101e49190612904565b6109a4565b005b6101f3610be6565b6040516102009190612e7c565b60405180910390f35b6102116110b7565b005b61021b6111e1565b005b61022561131b565b005b610241600480360381019061023c9190612904565b6113d9565b60405161024e919061316e565b60405180910390f35b61025f6115fe565b60405161026c9190612d80565b60405180910390f35b61027d611627565b60405161028a9190612dc4565b60405180910390f35b6102ad60048036038101906102a89190612904565b611731565b6040516102ba9190612de6565b60405180910390f35b6102cb61178a565b005b6102d56118b4565b005b6102df6119e8565b6040516102ec919061316e565b60405180910390f35b61030f600480360381019061030a919061297a565b611ac1565b60405161031d929190612e9e565b60405180910390f35b61032e611c62565b005b61034a60048036038101906103459190612904565b611d60565b60405161035993929190612e01565b60405180910390f35b61036a611e5b565b005b610374611f85565b604051610381919061316e565b60405180910390f35b610392612116565b005b6103ae60048036038101906103a99190612904565b61227d565b005b6103b8612426565b6040516103c59190612e38565b60405180910390f35b600260003373ffffffffffffffffffffffffffffffffffffffff1673ffffffffffffffffffffffffffffffffffffffff16815260200190815260200160002060000160009054906101000a900460ff1661045d576040517f08c379a00000000000000000000000000000000000000000000000000000000081526004016104549061312e565b60405180910390fd5b60046007811115610471576104706133f2565b5b600060149054906101000a900460ff166007811115610493576104926133f2565b5b146104d3576040517f08c379a00000000000000000000000000000000000000000000000000000000081526004016104ca90612f2e565b60405180910390fd5b6000600260003373ffffffffffffffffffffffffffffffffffffffff1673ffffffffffffffffffffffffffffffffffffffff16815260200190815260200160002090508060000160019054906101000a900460ff1615610568576040517f08c379a000000000000000000000000000000000000000000000000000000000815260040161055f9061304e565b60405180910390fd5b60008211801561057d57506003805490508211155b6105bc576040517f08c379a00000000000000000000000000000000000000000000000000000000081526004016105b390612f4e565b60405180910390fd5b600060036001846105cd9190613234565b815481106105de576105dd613450565b5b906000526020600020906002020190508060010160008154809291906106039061337a565b919050555060045481600101541115610629578060010154600481905550826005819055505b60018260000160016101000a81548160ff0219169083151502179055508282600101819055507f4d99b957a2bc29a30ebd96a7be8e68fe50a3c701db28a91436490b7d53870ca43384604051610680929190612d9b565b60405180910390a1505050565b60006106976115fe565b73ffffffffffffffffffffffffffffffffffffffff168273ffffffffffffffffffffffffffffffffffffffff16149050919050565b600260003373ffffffffffffffffffffffffffffffffffffffff1673ffffffffffffffffffffffffffffffffffffffff16815260200190815260200160002060000160009054906101000a900460ff1661075b576040517f08c379a00000000000000000000000000000000000000000000000000000000081526004016107529061312e565b60405180910390fd5b6002600781111561076f5761076e6133f2565b5b600060149054906101000a900460ff166007811115610791576107906133f2565b5b146107d1576040517f08c379a00000000000000000000000000000000000000000000000000000000081526004016107c89061314e565b60405180910390fd5b6003604051806040016040528083815260200160008152509080600181540180825580915050600190039060005260206000209060020201600090919091909150600082015181600001908051906020019061082e929190612713565b506020820151816001015550507f92e393e9b54e2f801d3ea4beb0c5e71a21cc34a5d34b77d0fb8a3aa1650dc18f60038054905060405161086f919061316e565b60405180910390a150565b610882612509565b73ffffffffffffffffffffffffffffffffffffffff166108a06115fe565b73ffffffffffffffffffffffffffffffffffffffff16146108f6576040517f08c379a00000000000000000000000000000000000000000000000000000000081526004016108ed90612fee565b60405180910390fd5b6005600781111561090a576109096133f2565b5b600060149054906101000a900460ff16600781111561092c5761092b6133f2565b5b1461096c576040517f08c379a000000000000000000000000000000000000000000000000000000000815260040161096390612f8e565b60405180910390fd5b6109766006612511565b7f0e5e95ff8725ab3e7a4b6b59998a4c344c2aa8d1485f5e60cb7f337768e6134760405160405180910390a1565b6109ac612509565b73ffffffffffffffffffffffffffffffffffffffff166109ca6115fe565b73ffffffffffffffffffffffffffffffffffffffff1614610a20576040517f08c379a0000000000000000000000000000000000000000000000000000000008152600401610a1790612fee565b60405180910390fd5b60016007811115610a3457610a336133f2565b5b600060149054906101000a900460ff166007811115610a5657610a556133f2565b5b14610a96576040517f08c379a0000000000000000000000000000000000000000000000000000000008152600401610a8d90612f0e565b60405180910390fd5b6000600260008373ffffffffffffffffffffffffffffffffffffffff1673ffffffffffffffffffffffffffffffffffffffff16815260200190815260200160002090508060000160009054906101000a900460ff1615610b2b576040517f08c379a0000000000000000000000000000000000000000000000000000000008152600401610b22906130ae565b60405180910390fd5b6001829080600181540180825580915050600190039060005260206000200160009091909190916101000a81548173ffffffffffffffffffffffffffffffffffffffff021916908373ffffffffffffffffffffffffffffffffffffffff16021790555060018160000160006101000a81548160ff0219169083151502179055507fb6be2187d059cc2a55fe29e0e503b566e1e0f8c8780096e185429350acffd3dd82604051610bda9190612d80565b60405180910390a15050565b6060610bf06115fe565b73ffffffffffffffffffffffffffffffffffffffff163373ffffffffffffffffffffffffffffffffffffffff161480610c755750600260003373ffffffffffffffffffffffffffffffffffffffff1673ffffffffffffffffffffffffffffffffffffffff16815260200190815260200160002060000160009054906101000a900460ff165b610cb4576040517f08c379a0000000000000000000000000000000000000000000000000000000008152600401610cab90612fce565b60405180910390fd5b60006007811115610cc857610cc76133f2565b5b600060149054906101000a900460ff166007811115610cea57610ce96133f2565b5b1415610d2d576040518060400160405280600c81526020017f53797374656d205265736574000000000000000000000000000000000000000081525090506110b4565b60016007811115610d4157610d406133f2565b5b600060149054906101000a900460ff166007811115610d6357610d626133f2565b5b1415610da6576040518060400160405280601281526020017f5265676973746572696e6720566f74657273000000000000000000000000000081525090506110b4565b60026007811115610dba57610db96133f2565b5b600060149054906101000a900460ff166007811115610ddc57610ddb6133f2565b5b1415610e1f576040518060400160405280601e81526020017f50726f706f73616c7320526567697374726174696f6e2053746172746564000081525090506110b4565b60036007811115610e3357610e326133f2565b5b600060149054906101000a900460ff166007811115610e5557610e546133f2565b5b1415610e98576040518060400160405280601c81526020017f50726f706f73616c7320526567697374726174696f6e20456e6465640000000081525090506110b4565b60046007811115610eac57610eab6133f2565b5b600060149054906101000a900460ff166007811115610ece57610ecd6133f2565b5b1415610f11576040518060400160405280601681526020017f566f74696e672053657373696f6e20537461727465640000000000000000000081525090506110b4565b60056007811115610f2557610f246133f2565b5b600060149054906101000a900460ff166007811115610f4757610f466133f2565b5b1415610f8a576040518060400160405280601481526020017f566f74696e672053657373696f6e20456e64656400000000000000000000000081525090506110b4565b60066007811115610f9e57610f9d6133f2565b5b600060149054906101000a900460ff166007811115610fc057610fbf6133f2565b5b1415611003576040518060400160405280600d81526020017f566f7465732054616c6c6965640000000000000000000000000000000000000081525090506110b4565b600780811115611016576110156133f2565b5b600060149054906101000a900460ff166007811115611038576110376133f2565b5b141561107b576040518060400160405280600b81526020017f566f74657320526573657400000000000000000000000000000000000000000081525090506110b4565b6040518060400160405280600781526020017f556e6b6e6f776e0000000000000000000000000000000000000000000000000081525090505b90565b6110bf612509565b73ffffffffffffffffffffffffffffffffffffffff166110dd6115fe565b73ffffffffffffffffffffffffffffffffffffffff1614611133576040517f08c379a000000000000000000000000000000000000000000000000000000000815260040161112a90612fee565b60405180910390fd5b60026007811115611147576111466133f2565b5b600060149054906101000a900460ff166007811115611169576111686133f2565b5b146111a9576040517f08c379a00000000000000000000000000000000000000000000000000000000081526004016111a0906130ee565b60405180910390fd5b6111b36003612511565b7f240cb87b2e4df4c318e72bd714d45a9cad60249e883ff56b1fffd83a4595a8fa60405160405180910390a1565b6111e9612509565b73ffffffffffffffffffffffffffffffffffffffff166112076115fe565b73ffffffffffffffffffffffffffffffffffffffff161461125d576040517f08c379a000000000000000000000000000000000000000000000000000000000815260040161125490612fee565b60405180910390fd5b600073ffffffffffffffffffffffffffffffffffffffff1660008054906101000a900473ffffffffffffffffffffffffffffffffffffffff1673ffffffffffffffffffffffffffffffffffffffff167f8be0079c531659141344cd1fd0a4f28419497f9722a3daafe3b4186f6b6457e060405160405180910390a360008060006101000a81548173ffffffffffffffffffffffffffffffffffffffff021916908373ffffffffffffffffffffffffffffffffffffffff160217905550565b611323612509565b73ffffffffffffffffffffffffffffffffffffffff166113416115fe565b73ffffffffffffffffffffffffffffffffffffffff1614611397576040517f08c379a000000000000000000000000000000000000000000000000000000000815260040161138e90612fee565b60405180910390fd5b6113a1600061258b565b6113ab6000612511565b7fe6d9c12d72db67208f336633d48b0cdd2c24ef550c383f086aba33a4de89df6a60405160405180910390a1565b60006113e3612509565b73ffffffffffffffffffffffffffffffffffffffff166114016115fe565b73ffffffffffffffffffffffffffffffffffffffff1614611457576040517f08c379a000000000000000000000000000000000000000000000000000000000815260040161144e90612fee565b60405180910390fd5b6006600781111561146b5761146a6133f2565b5b600060149054906101000a900460ff16600781111561148d5761148c6133f2565b5b146114cd576040517f08c379a00000000000000000000000000000000000000000000000000000000081526004016114c49061300e565b60405180910390fd5b600260008373ffffffffffffffffffffffffffffffffffffffff1673ffffffffffffffffffffffffffffffffffffffff16815260200190815260200160002060000160009054906101000a900460ff1680156115755750600260008373ffffffffffffffffffffffffffffffffffffffff1673ffffffffffffffffffffffffffffffffffffffff16815260200190815260200160002060000160019054906101000a900460ff165b6115b4576040517f08c379a00000000000000000000000000000000000000000000000000000000081526004016115ab9061310e565b60405180910390fd5b600260008373ffffffffffffffffffffffffffffffffffffffff1673ffffffffffffffffffffffffffffffffffffffff168152602001908152602001600020600101549050919050565b60008060009054906101000a900473ffffffffffffffffffffffffffffffffffffffff16905090565b6060611631612509565b73ffffffffffffffffffffffffffffffffffffffff1661164f6115fe565b73ffffffffffffffffffffffffffffffffffffffff16146116a5576040517f08c379a000000000000000000000000000000000000000000000000000000000815260040161169c90612fee565b60405180910390fd5b600180548060200260200160405190810160405280929190818152602001828054801561172757602002820191906000526020600020905b8160009054906101000a900473ffffffffffffffffffffffffffffffffffffffff1673ffffffffffffffffffffffffffffffffffffffff16815260200190600101908083116116dd575b5050505050905090565b6000600260008373ffffffffffffffffffffffffffffffffffffffff1673ffffffffffffffffffffffffffffffffffffffff16815260200190815260200160002060000160009054906101000a900460ff169050919050565b611792612509565b73ffffffffffffffffffffffffffffffffffffffff166117b06115fe565b73ffffffffffffffffffffffffffffffffffffffff1614611806576040517f08c379a00000000000000000000000000000000000000000000000000000000081526004016117fd90612fee565b60405180910390fd5b6004600781111561181a576118196133f2565b5b600060149054906101000a900460ff16600781111561183c5761183b6133f2565b5b1461187c576040517f08c379a000000000000000000000000000000000000000000000000000000000815260040161187390612ece565b60405180910390fd5b6118866005612511565b7fc379d349a6301baf50fb2f98d829f4ae10b1cdb7c66f4e4d8117302df7b8cd4c60405160405180910390a1565b6118bc612509565b73ffffffffffffffffffffffffffffffffffffffff166118da6115fe565b73ffffffffffffffffffffffffffffffffffffffff1614611930576040517f08c379a000000000000000000000000000000000000000000000000000000000815260040161192790612fee565b60405180910390fd5b60066007811115611944576119436133f2565b5b600060149054906101000a900460ff166007811115611966576119656133f2565b5b146119a6576040517f08c379a000000000000000000000000000000000000000000000000000000000815260040161199d9061306e565b60405180910390fd5b6119b0600161258b565b6119ba6007612511565b7f181116b640e6a324b012ab99d433f09debd8232185d611ebed62cfb16f06a4c460405160405180910390a1565b60006119f26115fe565b73ffffffffffffffffffffffffffffffffffffffff163373ffffffffffffffffffffffffffffffffffffffff161480611a775750600260003373ffffffffffffffffffffffffffffffffffffffff1673ffffffffffffffffffffffffffffffffffffffff16815260200190815260200160002060000160009054906101000a900460ff165b611ab6576040517f08c379a0000000000000000000000000000000000000000000000000000000008152600401611aad90612fce565b60405180910390fd5b600380549050905090565b60606000611acd6115fe565b73ffffffffffffffffffffffffffffffffffffffff163373ffffffffffffffffffffffffffffffffffffffff161480611b525750600260003373ffffffffffffffffffffffffffffffffffffffff1673ffffffffffffffffffffffffffffffffffffffff16815260200190815260200160002060000160009054906101000a900460ff165b611b91576040517f08c379a0000000000000000000000000000000000000000000000000000000008152600401611b8890612fce565b60405180910390fd5b60006003600185611ba29190613234565b81548110611bb357611bb2613450565b5b90600052602060002090600202019050806000018160010154818054611bd890613317565b80601f0160208091040260200160405190810160405280929190818152602001828054611c0490613317565b8015611c515780601f10611c2657610100808354040283529160200191611c51565b820191906000526020600020905b815481529060010190602001808311611c3457829003601f168201915b505050505091509250925050915091565b611c6a612509565b73ffffffffffffffffffffffffffffffffffffffff16611c886115fe565b73ffffffffffffffffffffffffffffffffffffffff1614611cde576040517f08c379a0000000000000000000000000000000000000000000000000000000008152600401611cd590612fee565b60405180910390fd5b60006007811115611cf257611cf16133f2565b5b600060149054906101000a900460ff166007811115611d1457611d136133f2565b5b14611d54576040517f08c379a0000000000000000000000000000000000000000000000000000000008152600401611d4b90612eee565b60405180910390fd5b611d5e6001612511565b565b6000806000611d6d612509565b73ffffffffffffffffffffffffffffffffffffffff16611d8b6115fe565b73ffffffffffffffffffffffffffffffffffffffff1614611de1576040517f08c379a0000000000000000000000000000000000000000000000000000000008152600401611dd890612fee565b60405180910390fd5b6000600260008673ffffffffffffffffffffffffffffffffffffffff1673ffffffffffffffffffffffffffffffffffffffff16815260200190815260200160002090508060000160009054906101000a900460ff168160000160019054906101000a900460ff168260010154935093509350509193909250565b611e63612509565b73ffffffffffffffffffffffffffffffffffffffff16611e816115fe565b73ffffffffffffffffffffffffffffffffffffffff1614611ed7576040517f08c379a0000000000000000000000000000000000000000000000000000000008152600401611ece90612fee565b60405180910390fd5b60016007811115611eeb57611eea6133f2565b5b600060149054906101000a900460ff166007811115611f0d57611f0c6133f2565b5b14611f4d576040517f08c379a0000000000000000000000000000000000000000000000000000000008152600401611f449061308e565b60405180910390fd5b611f576002612511565b7f344c25562921d075a298d34b6dd1fd00d36ff293974539dfd4a8c625d9f0064c60405160405180910390a1565b6000611f8f6115fe565b73ffffffffffffffffffffffffffffffffffffffff163373ffffffffffffffffffffffffffffffffffffffff1614806120145750600260003373ffffffffffffffffffffffffffffffffffffffff1673ffffffffffffffffffffffffffffffffffffffff16815260200190815260200160002060000160009054906101000a900460ff165b612053576040517f08c379a000000000000000000000000000000000000000000000000000000000815260040161204a90612fce565b60405180910390fd5b60066007811115612067576120666133f2565b5b600060149054906101000a900460ff166007811115612089576120886133f2565b5b146120c9576040517f08c379a00000000000000000000000000000000000000000000000000000000081526004016120c0906130ce565b60405180910390fd5b60006005541161210e576040517f08c379a00000000000000000000000000000000000000000000000000000000081526004016121059061302e565b60405180910390fd5b600554905090565b61211e612509565b73ffffffffffffffffffffffffffffffffffffffff1661213c6115fe565b73ffffffffffffffffffffffffffffffffffffffff1614612192576040517f08c379a000000000000000000000000000000000000000000000000000000000815260040161218990612fee565b60405180910390fd5b600360078111156121a6576121a56133f2565b5b600060149054906101000a900460ff1660078111156121c8576121c76133f2565b5b148061220657506007808111156121e2576121e16133f2565b5b600060149054906101000a900460ff166007811115612204576122036133f2565b5b145b612245576040517f08c379a000000000000000000000000000000000000000000000000000000000815260040161223c90612fae565b60405180910390fd5b61224f6004612511565b7f1b8e19a458c1bcd88553332c518cc5c4e2d5793e712ee766d4f1c14f672ef1f560405160405180910390a1565b612285612509565b73ffffffffffffffffffffffffffffffffffffffff166122a36115fe565b73ffffffffffffffffffffffffffffffffffffffff16146122f9576040517f08c379a00000000000000000000000000000000000000000000000000000000081526004016122f090612fee565b60405180910390fd5b600073ffffffffffffffffffffffffffffffffffffffff168173ffffffffffffffffffffffffffffffffffffffff161415612369576040517f08c379a000000000000000000000000000000000000000000000000000000000815260040161236090612f6e565b60405180910390fd5b8073ffffffffffffffffffffffffffffffffffffffff1660008054906101000a900473ffffffffffffffffffffffffffffffffffffffff1673ffffffffffffffffffffffffffffffffffffffff167f8be0079c531659141344cd1fd0a4f28419497f9722a3daafe3b4186f6b6457e060405160405180910390a3806000806101000a81548173ffffffffffffffffffffffffffffffffffffffff021916908373ffffffffffffffffffffffffffffffffffffffff16021790555050565b60006124306115fe565b73ffffffffffffffffffffffffffffffffffffffff163373ffffffffffffffffffffffffffffffffffffffff1614806124b55750600260003373ffffffffffffffffffffffffffffffffffffffff1673ffffffffffffffffffffffffffffffffffffffff16815260200190815260200160002060000160009054906101000a900460ff165b6124f4576040517f08c379a00000000000000000000000000000000000000000000000000000000081526004016124eb90612fce565b60405180910390fd5b600060149054906101000a900460ff16905090565b600033905090565b60008060149054906101000a900460ff16905081600060146101000a81548160ff02191690836007811115612549576125486133f2565b5b02179055507f0a97a4ee45751e2abf3e4fc8946939630b11b371ea8ae39ccdc3056e98f5cc3f818360405161257f929190612e53565b60405180910390a15050565b60005b60018054905081101561267a57600060026000600184815481106125b5576125b4613450565b5b9060005260206000200160009054906101000a900473ffffffffffffffffffffffffffffffffffffffff1673ffffffffffffffffffffffffffffffffffffffff1673ffffffffffffffffffffffffffffffffffffffff16815260200190815260200160002090508261263f5760008160000160006101000a81548160ff0219169083151502179055505b60008160000160016101000a81548160ff021916908315150217905550600081600101819055505080806126729061337a565b91505061258e565b50806126a1576001600061268e9190612799565b6003600061269c91906127ba565b612700565b6000600190505b60038054905081116126fe57600060036001836126c59190613234565b815481106126d6576126d5613450565b5b90600052602060002090600202016001018190555080806126f69061337a565b9150506126a8565b505b6000600481905550600060058190555050565b82805461271f90613317565b90600052602060002090601f0160209004810192826127415760008555612788565b82601f1061275a57805160ff1916838001178555612788565b82800160010185558215612788579182015b8281111561278757825182559160200191906001019061276c565b5b50905061279591906127de565b5090565b50805460008255906000526020600020908101906127b791906127de565b50565b50805460008255600202906000526020600020908101906127db91906127fb565b50565b5b808211156127f75760008160009055506001016127df565b5090565b5b808211156128265760008082016000612815919061282a565b6001820160009055506002016127fc565b5090565b50805461283690613317565b6000825580601f106128485750612867565b601f01602090049060005260206000209081019061286691906127de565b5b50565b600061287d612878846131ae565b613189565b905082815260208101848484011115612899576128986134b3565b5b6128a48482856132d5565b509392505050565b6000813590506128bb81613b16565b92915050565b600082601f8301126128d6576128d56134ae565b5b81356128e684826020860161286a565b91505092915050565b6000813590506128fe81613b2d565b92915050565b60006020828403121561291a576129196134bd565b5b6000612928848285016128ac565b91505092915050565b600060208284031215612947576129466134bd565b5b600082013567ffffffffffffffff811115612965576129646134b8565b5b612971848285016128c1565b91505092915050565b6000602082840312156129905761298f6134bd565b5b600061299e848285016128ef565b91505092915050565b60006129b383836129bf565b60208301905092915050565b6129c881613268565b82525050565b6129d781613268565b82525050565b60006129e8826131ef565b6129f28185613212565b93506129fd836131df565b8060005b83811015612a2e578151612a1588826129a7565b9750612a2083613205565b925050600181019050612a01565b5085935050505092915050565b612a448161327a565b82525050565b612a53816132c3565b82525050565b6000612a64826131fa565b612a6e8185613223565b9350612a7e8185602086016132e4565b612a87816134c2565b840191505092915050565b6000612a9f603383613223565b9150612aaa826134d3565b604082019050919050565b6000612ac2603483613223565b9150612acd82613522565b604082019050919050565b6000612ae5602f83613223565b9150612af082613571565b604082019050919050565b6000612b08602283613223565b9150612b13826135c0565b604082019050919050565b6000612b2b601483613223565b9150612b368261360f565b602082019050919050565b6000612b4e602683613223565b9150612b5982613638565b604082019050919050565b6000612b71602f83613223565b9150612b7c82613687565b604082019050919050565b6000612b94605483613223565b9150612b9f826136d6565b606082019050919050565b6000612bb7603383613223565b9150612bc28261374b565b604082019050919050565b6000612bda602083613223565b9150612be58261379a565b602082019050919050565b6000612bfd603783613223565b9150612c08826137c3565b604082019050919050565b6000612c20602383613223565b9150612c2b82613812565b604082019050919050565b6000612c43601883613223565b9150612c4e82613861565b602082019050919050565b6000612c66602b83613223565b9150612c718261388a565b604082019050919050565b6000612c89604783613223565b9150612c94826138d9565b606082019050919050565b6000612cac601c83613223565b9150612cb78261394e565b602082019050919050565b6000612ccf603583613223565b9150612cda82613977565b604082019050919050565b6000612cf2603a83613223565b9150612cfd826139c6565b604082019050919050565b6000612d15603783613223565b9150612d2082613a15565b604082019050919050565b6000612d38602683613223565b9150612d4382613a64565b604082019050919050565b6000612d5b603283613223565b9150612d6682613ab3565b604082019050919050565b612d7a816132b9565b82525050565b6000602082019050612d9560008301846129ce565b92915050565b6000604082019050612db060008301856129ce565b612dbd6020830184612d71565b9392505050565b60006020820190508181036000830152612dde81846129dd565b905092915050565b6000602082019050612dfb6000830184612a3b565b92915050565b6000606082019050612e166000830186612a3b565b612e236020830185612a3b565b612e306040830184612d71565b949350505050565b6000602082019050612e4d6000830184612a4a565b92915050565b6000604082019050612e686000830185612a4a565b612e756020830184612a4a565b9392505050565b60006020820190508181036000830152612e968184612a59565b905092915050565b60006040820190508181036000830152612eb88185612a59565b9050612ec76020830184612d71565b9392505050565b60006020820190508181036000830152612ee781612a92565b9050919050565b60006020820190508181036000830152612f0781612ab5565b9050919050565b60006020820190508181036000830152612f2781612ad8565b9050919050565b60006020820190508181036000830152612f4781612afb565b9050919050565b60006020820190508181036000830152612f6781612b1e565b9050919050565b60006020820190508181036000830152612f8781612b41565b9050919050565b60006020820190508181036000830152612fa781612b64565b9050919050565b60006020820190508181036000830152612fc781612b87565b9050919050565b60006020820190508181036000830152612fe781612baa565b9050919050565b6000602082019050818103600083015261300781612bcd565b9050919050565b6000602082019050818103600083015261302781612bf0565b9050919050565b6000602082019050818103600083015261304781612c13565b9050919050565b6000602082019050818103600083015261306781612c36565b9050919050565b6000602082019050818103600083015261308781612c59565b9050919050565b600060208201905081810360008301526130a781612c7c565b9050919050565b600060208201905081810360008301526130c781612c9f565b9050919050565b600060208201905081810360008301526130e781612cc2565b9050919050565b6000602082019050818103600083015261310781612ce5565b9050919050565b6000602082019050818103600083015261312781612d08565b9050919050565b6000602082019050818103600083015261314781612d2b565b9050919050565b6000602082019050818103600083015261316781612d4e565b9050919050565b60006020820190506131836000830184612d71565b92915050565b60006131936131a4565b905061319f8282613349565b919050565b6000604051905090565b600067ffffffffffffffff8211156131c9576131c861347f565b5b6131d2826134c2565b9050602081019050919050565b6000819050602082019050919050565b600081519050919050565b600081519050919050565b6000602082019050919050565b600082825260208201905092915050565b600082825260208201905092915050565b600061323f826132b9565b915061324a836132b9565b92508282101561325d5761325c6133c3565b5b828203905092915050565b600061327382613299565b9050919050565b60008115159050919050565b600081905061329482613b02565b919050565b600073ffffffffffffffffffffffffffffffffffffffff82169050919050565b6000819050919050565b60006132ce82613286565b9050919050565b82818337600083830152505050565b60005b838110156133025780820151818401526020810190506132e7565b83811115613311576000848401525b50505050565b6000600282049050600182168061332f57607f821691505b6020821081141561334357613342613421565b5b50919050565b613352826134c2565b810181811067ffffffffffffffff821117156133715761337061347f565b5b80604052505050565b6000613385826132b9565b91507fffffffffffffffffffffffffffffffffffffffffffffffffffffffffffffffff8214156133b8576133b76133c3565b5b600182019050919050565b7f4e487b7100000000000000000000000000000000000000000000000000000000600052601160045260246000fd5b7f4e487b7100000000000000000000000000000000000000000000000000000000600052602160045260246000fd5b7f4e487b7100000000000000000000000000000000000000000000000000000000600052602260045260246000fd5b7f4e487b7100000000000000000000000000000000000000000000000000000000600052603260045260246000fd5b7f4e487b7100000000000000000000000000000000000000000000000000000000600052604160045260246000fd5b600080fd5b600080fd5b600080fd5b600080fd5b6000601f19601f8301169050919050565b7f43616e6e6f7420656e6420766f74696e672073657373696f6e206966206e6f7460008201527f2063757272656e746c7920737461727465642e00000000000000000000000000602082015250565b7f43616e6e6f74207374617274207265676973746572696e6720766f746572732060008201527f69662073797374656d206e6f742072657365742e000000000000000000000000602082015250565b7f4e6f7420616363657074696e6720766f74657220726567697374726174696f6e60008201527f20617420746869732073746167652e0000000000000000000000000000000000602082015250565b7f4e6f7420616363657074696e6720766f7465732061742074686973207374616760008201527f652e000000000000000000000000000000000000000000000000000000000000602082015250565b7f496e76616c69642070726f706f73616c2069642e000000000000000000000000600082015250565b7f4f776e61626c653a206e6577206f776e657220697320746865207a65726f206160008201527f6464726573730000000000000000000000000000000000000000000000000000602082015250565b7f43616e6e6f742074616c6c7920766f746573206265666f726520766f74696e6760008201527f2073657373696f6e20656e6465642e0000000000000000000000000000000000602082015250565b7f43616e6e6f7420737461727420766f74696e672073657373696f6e206265666f60008201527f72652070726f706f73616c7320726567697374726174696f6e20656e6465642060208201527f6f7220766f74657320776572652072657365742e000000000000000000000000604082015250565b7f4f6e6c79207468652061646d696e206f7220612072656769737465726564207660008201527f6f7465722063616e2063616c6c20746869732e00000000000000000000000000602082015250565b7f4f776e61626c653a2063616c6c6572206973206e6f7420746865206f776e6572600082015250565b7f43616e6e6f742061636365737320766f7465642070726f706f73616c7320626560008201527f666f726520766f746573206172652074616c6c6965642e000000000000000000602082015250565b7f4e6f2077696e6e696e672070726f706f73616c20776173206964656e7469666960008201527f65642e0000000000000000000000000000000000000000000000000000000000602082015250565b7f566f7465722068617320616c726561647920766f7465642e0000000000000000600082015250565b7f43616e6e6f7420726573657420766f746573206265666f72652074686579206160008201527f72652074616c6c6965642e000000000000000000000000000000000000000000602082015250565b7f43616e6e6f74207374617274207265676973746572696e672070726f706f736160008201527f6c73206966206e6f742063757272656e746c79207265676973746572696e672060208201527f766f746572732e00000000000000000000000000000000000000000000000000604082015250565b7f566f74657220697320616c726561647920726567697374657265642e00000000600082015250565b7f43616e6e6f74206765742077696e6e696e672070726f706f73616c206265666f60008201527f726520766f746573206172652074616c6c6965642e0000000000000000000000602082015250565b7f43616e6e6f7420656e64207265676973746572696e672070726f706f73616c7360008201527f206966206e6f742063757272656e746c7920737461727465642e000000000000602082015250565b7f52657175657374656420766f746572206973206e6f742072656769737465726560008201527f64206f7220686173206e6f7420766f746564207965742e000000000000000000602082015250565b7f4f6e6c792061207265676973746572656420766f7465722063616e2063616c6c60008201527f20746869732e0000000000000000000000000000000000000000000000000000602082015250565b7f4e6f7420616363657074696e672070726f706f73616c2072656769737472617460008201527f696f6e20617420746869732073746167652e0000000000000000000000000000602082015250565b60088110613b1357613b126133f2565b5b50565b613b1f81613268565b8114613b2a57600080fd5b50565b613b36816132b9565b8114613b4157600080fd5b5056fea2646970667358221220acd4208a031451145847efa4ceb9dee27654c446360771a047f4ef86366f117664736f6c63430008060033",
  "immutableReferences": {},
  "source": "// SPDX-License-Identifier: GPL-3.0\r\npragma solidity ^0.8.0;\r\n\r\nimport \"@openzeppelin/contracts/access/Ownable.sol\";\r\n\r\n/**\r\n * @title Voting2 \r\n * @dev Voting2 system (by Rene Doursat)\r\n */\r\ncontract Voting2 is Ownable\r\n{\r\n    struct Voter {\r\n        bool isRegistered;\r\n        bool hasVoted;\r\n        uint chosenProposalId;\r\n    }\r\n    \r\n    struct Proposal {\r\n        string description;\r\n        uint voteCount;\r\n    }\r\n    \r\n    enum WorkflowStatus {\r\n        SystemReset,\r\n        RegisteringVoters,\r\n        ProposalsRegistrationStarted,\r\n        ProposalsRegistrationEnded,\r\n        VotingSessionStarted,\r\n        VotingSessionEnded,\r\n        VotesTallied,\r\n        VotesReset\r\n    }\r\n    \r\n    event SystemReset();\r\n    event VoterRegistered(address voterAddress);\r\n    event ProposalsRegistrationStarted();\r\n    event ProposalsRegistrationEnded();\r\n    event ProposalRegistered(uint proposalId);\r\n    event VotingSessionStarted();\r\n    event VotingSessionEnded();\r\n    event Voted(address voter, uint proposalId);\r\n    event VotesTallied();\r\n    event VotesReset();\r\n    event WorkflowStatusChange(WorkflowStatus previousStatus, WorkflowStatus newStatus);\r\n    \r\n    // Variables\r\n    // ---------\r\n    \r\n    WorkflowStatus private _workflowStatus = WorkflowStatus.SystemReset;\r\n\taddress[] private _addresses;\r\n    mapping(address => Voter) private _voters;\r\n    Proposal[] private _proposals;\r\n    \r\n    uint private _maxVoteCount;\r\n    uint private _winningProposalId;\r\n    \r\n\t// Admin's getters\r\n\t// ---------------\r\n\t\r\n    function getWorkflowStatus() public view onlyOwnerOrVoter returns (WorkflowStatus) {\r\n        return _workflowStatus;\r\n    }\r\n\t\r\n    function getWorkflowStatusString() public view onlyOwnerOrVoter returns (string memory) {\r\n\t\tif (_workflowStatus == WorkflowStatus.SystemReset) return \"System Reset\";\r\n\t\tif (_workflowStatus == WorkflowStatus.RegisteringVoters) return \"Registering Voters\";\r\n\t\tif (_workflowStatus == WorkflowStatus.ProposalsRegistrationStarted) return \"Proposals Registration Started\";\r\n\t\tif (_workflowStatus == WorkflowStatus.ProposalsRegistrationEnded) return \"Proposals Registration Ended\";\r\n\t\tif (_workflowStatus == WorkflowStatus.VotingSessionStarted) return \"Voting Session Started\";\r\n\t\tif (_workflowStatus == WorkflowStatus.VotingSessionEnded) return \"Voting Session Ended\";\r\n\t\tif (_workflowStatus == WorkflowStatus.VotesTallied) return \"Votes Tallied\";\r\n\t\tif (_workflowStatus == WorkflowStatus.VotesReset) return \"Votes Reset\";\r\n\t\treturn \"Unknown\";\r\n    }\r\n\t\r\n\tfunction getAddresses() public view onlyOwner returns (address[] memory) {\r\n\t\treturn _addresses;\r\n\t}\r\n\t\r\n\tfunction getVoter(address addr) public view onlyOwner returns (bool, bool, uint) {\r\n\t\tVoter storage voter = _voters[addr];\r\n\t\treturn (voter.isRegistered, voter.hasVoted, voter.chosenProposalId);\r\n\t}\r\n\t\r\n\tfunction getProposalCount() public view onlyOwnerOrVoter returns (uint) {\r\n\t\treturn _proposals.length;\r\n\t}\r\n\t\r\n\tfunction getProposal(uint id) public view onlyOwnerOrVoter returns (string memory, uint) {\r\n\t\tProposal storage proposal = _proposals[id-1];\r\n\t\treturn (proposal.description, proposal.voteCount);\r\n\t}\r\n\r\n    // Utilities\r\n    // ---------\r\n\r\n\tfunction isAdmin(address addr) public view returns (bool) {\r\n\t\treturn (addr == owner());\r\n\t}\r\n\t\r\n\tfunction isVoter(address addr) public view returns (bool) {\r\n\t\treturn _voters[addr].isRegistered;\r\n\t}\r\n\t\r\n    modifier onlyVoter() {\r\n        require(_voters[msg.sender].isRegistered,\r\n\t\t\t\t\"Only a registered voter can call this.\");\r\n        _;\r\n    }\r\n\t\r\n    modifier onlyOwnerOrVoter() {\r\n        require(msg.sender == owner() || _voters[msg.sender].isRegistered,\r\n\t\t\t\t\"Only the admin or a registered voter can call this.\");\r\n        _;\r\n    }\r\n\r\n    function _setWorkflowStatus(WorkflowStatus newStatus) private {\r\n\t\tWorkflowStatus previousStatus = _workflowStatus;\r\n        _workflowStatus = newStatus;\r\n        emit WorkflowStatusChange(previousStatus, newStatus);\r\n    }\r\n\r\n    function _reset(bool keepRegistered) private {\r\n\t\tfor (uint i = 0; i < _addresses.length; i++) {\r\n\t\t\tVoter storage voter = _voters[_addresses[i]];\r\n\t\t\t\r\n\t\t\tif (!keepRegistered) voter.isRegistered = false;\r\n\t\t\tvoter.hasVoted = false;\r\n\t\t\tvoter.chosenProposalId = 0;\r\n\t\t}\r\n\t\t\r\n\t\tif (!keepRegistered) {\r\n\t\t\tdelete _addresses;\r\n\t\t\tdelete _proposals;\r\n\t\t} else {\r\n\t\t\tfor (uint id = 1; id <= _proposals.length; id++) {\r\n\t\t\t\t_proposals[id-1].voteCount = 0;\r\n\t\t\t}\t\t\r\n\t\t}\r\n\t\t\r\n\t\t_maxVoteCount = 0;\r\n\t\t_winningProposalId = 0;\r\n\t}\r\n    \r\n    // Reset System\r\n    // ------------\r\n    \r\n    function resetSystem() public onlyOwner {\r\n\t\t// function always available: no requirement\r\n\t\t_reset(false);\r\n\t\t\r\n        _setWorkflowStatus(WorkflowStatus.SystemReset);\r\n        emit SystemReset();\r\n    }\r\n    \r\n    // Voter registration phase\r\n    // ------------------------\r\n    \r\n    function startRegisteringVoters() public onlyOwner {\r\n\t\trequire(_workflowStatus == WorkflowStatus.SystemReset,\r\n\t\t\t\t\"Cannot start registering voters if system not reset.\");\r\n\t\t\t\t\r\n        _setWorkflowStatus(WorkflowStatus.RegisteringVoters);\r\n    }\r\n    \r\n    function registerVoter(address addr) public onlyOwner {\r\n\t\trequire(_workflowStatus == WorkflowStatus.RegisteringVoters,\r\n\t\t\t\t\"Not accepting voter registration at this stage.\");\r\n\t\t\r\n        Voter storage voter = _voters[addr];\r\n        require(!voter.isRegistered,\r\n                \"Voter is already registered.\");\r\n\r\n\t\t_addresses.push(addr);\r\n        voter.isRegistered = true;\r\n\t\t\r\n        emit VoterRegistered(addr);\r\n    }\r\n    \r\n    // Proposals registration phase\r\n    // ----------------------------\r\n\t\r\n    function startProposalsRegistration() public onlyOwner {\r\n\t\trequire(_workflowStatus == WorkflowStatus.RegisteringVoters,\r\n\t\t\t\t\"Cannot start registering proposals if not currently registering voters.\");\r\n\t\t\t\t\r\n        _setWorkflowStatus(WorkflowStatus.ProposalsRegistrationStarted);\r\n        emit ProposalsRegistrationStarted();\r\n    }\r\n\t\r\n    function registerProposal(string memory description) public onlyVoter {\r\n\t\trequire(_workflowStatus == WorkflowStatus.ProposalsRegistrationStarted,\r\n\t\t\t\t\"Not accepting proposal registration at this stage.\");\r\n\r\n\t\t_proposals.push(Proposal(description, 0));\r\n\t\t\r\n        emit ProposalRegistered(_proposals.length);\r\n\t}\r\n\t\r\n    function endProposalsRegistration() public onlyOwner {\r\n\t\trequire(_workflowStatus == WorkflowStatus.ProposalsRegistrationStarted,\r\n\t\t\t\t\"Cannot end registering proposals if not currently started.\");\r\n\t\t\t\t\r\n        _setWorkflowStatus(WorkflowStatus.ProposalsRegistrationEnded);\r\n        emit ProposalsRegistrationEnded();\r\n    }\r\n    \r\n    // Voting session\r\n\t// --------------\r\n    \r\n    function startVotingSession() public onlyOwner {\r\n\t\trequire(_workflowStatus == WorkflowStatus.ProposalsRegistrationEnded ||\r\n\t\t\t\t_workflowStatus == WorkflowStatus.VotesReset,\r\n\t\t\t\t\"Cannot start voting session before proposals registration ended or votes were reset.\");\r\n\t\t\r\n        _setWorkflowStatus(WorkflowStatus.VotingSessionStarted);\r\n        emit VotingSessionStarted();\r\n    }\r\n    \r\n    function vote(uint proposalId) public onlyVoter {\r\n\t\trequire(_workflowStatus == WorkflowStatus.VotingSessionStarted,\r\n\t\t\t\t\"Not accepting votes at this stage.\");\r\n\t\t\r\n        Voter storage voter = _voters[msg.sender];\r\n        require(!voter.hasVoted,\r\n                \"Voter has already voted.\");\r\n\t\trequire(proposalId > 0 && proposalId <= _proposals.length,\r\n\t\t\t\t\"Invalid proposal id.\");\r\n        \r\n        Proposal storage proposal = _proposals[proposalId-1];\r\n        proposal.voteCount++;\r\n        if (proposal.voteCount > _maxVoteCount) {\r\n            _maxVoteCount = proposal.voteCount;\r\n            _winningProposalId = proposalId;\r\n        }\r\n        \r\n        voter.hasVoted = true;\r\n        voter.chosenProposalId = proposalId;\r\n\t\t\r\n        emit Voted(msg.sender, proposalId);\r\n    }\r\n\t\r\n    function endVotingSession() public onlyOwner {\r\n\t\trequire(_workflowStatus == WorkflowStatus.VotingSessionStarted,\r\n\t\t\t\t\"Cannot end voting session if not currently started.\");\r\n\t\t\t\t\r\n        _setWorkflowStatus(WorkflowStatus.VotingSessionEnded);\r\n        emit VotingSessionEnded();\r\n    }\r\n    \r\n    // Tally & reset votes\r\n\t// -------------------\r\n    \r\n    function tallyVotes() public onlyOwner {\r\n\t\trequire(_workflowStatus == WorkflowStatus.VotingSessionEnded,\r\n\t\t\t\t\"Cannot tally votes before voting session ended.\");\r\n        \r\n        _setWorkflowStatus(WorkflowStatus.VotesTallied);\r\n        emit VotesTallied();\r\n    }\r\n    \r\n    function getChosenProposalId(address addr) public view onlyOwner returns (uint) {\r\n\t\trequire(_workflowStatus == WorkflowStatus.VotesTallied,\r\n\t\t\t\t\"Cannot access voted proposals before votes are tallied.\");\r\n\t\trequire(_voters[addr].isRegistered && _voters[addr].hasVoted,\r\n\t\t\t\t\"Requested voter is not registered or has not voted yet.\");\r\n\t\t\r\n        return _voters[addr].chosenProposalId;\r\n    }\r\n    \r\n    function getWinningProposalId() public view onlyOwnerOrVoter returns (uint) {\r\n\t\trequire(_workflowStatus == WorkflowStatus.VotesTallied,\r\n\t\t\t\t\"Cannot get winning proposal before votes are tallied.\");\r\n\t\trequire(_winningProposalId > 0,\r\n\t\t\t\t\"No winning proposal was identified.\");\r\n\t\t\r\n        return _winningProposalId;\r\n    }\r\n    \r\n    function resetVotes() public onlyOwner {\r\n\t\trequire(_workflowStatus == WorkflowStatus.VotesTallied,\r\n\t\t\t\t\"Cannot reset votes before they are tallied.\");\r\n\t\t\r\n\t\t_reset(true);\r\n\t\t\r\n        _setWorkflowStatus(WorkflowStatus.VotesReset);\r\n        emit VotesReset();\r\n    }\r\n}",
  "sourcePath": "D:/OneDrive/Industry/2021 Alyra/codes/react/voting2/contracts/Voting2.sol",
  "compiler": {
    "name": "solc",
    "version": "0.8.6+commit.11564f7e.Emscripten.clang"
  },
  "schemaVersion": "3.4.1",
  "updatedAt": "2021-07-05T18:55:29.659Z",
  "networkType": "ethereum",
  "devdoc": {
    "details": "Voting2 system (by Rene Doursat)",
    "kind": "dev",
    "methods": {
      "owner()": {
        "details": "Returns the address of the current owner."
      },
      "renounceOwnership()": {
        "details": "Leaves the contract without owner. It will not be possible to call `onlyOwner` functions anymore. Can only be called by the current owner. NOTE: Renouncing ownership will leave the contract without an owner, thereby removing any functionality that is only available to the owner."
      },
      "transferOwnership(address)": {
        "details": "Transfers ownership of the contract to a new account (`newOwner`). Can only be called by the current owner."
      }
    },
    "title": "Voting2 ",
    "version": 1
  },
  "userdoc": {
    "kind": "user",
    "methods": {},
    "version": 1
  }
}